{
  "contractName": "CandleAuction",
  "abi": [
    {
      "inputs": [
        {
          "internalType": "uint256",
          "name": "_biddingTime",
          "type": "uint256"
        },
        {
          "internalType": "address payable",
          "name": "_beneficiary",
          "type": "address"
        }
      ],
      "stateMutability": "nonpayable",
      "type": "constructor"
    },
    {
      "anonymous": false,
      "inputs": [
        {
          "indexed": false,
          "internalType": "address",
          "name": "winner",
          "type": "address"
        },
        {
          "indexed": false,
          "internalType": "uint256",
          "name": "amount",
          "type": "uint256"
        }
      ],
      "name": "AuctionEnded",
      "type": "event"
    },
    {
      "anonymous": false,
      "inputs": [
        {
          "indexed": false,
          "internalType": "address",
          "name": "bidder",
          "type": "address"
        },
        {
          "indexed": false,
          "internalType": "uint256",
          "name": "amount",
          "type": "uint256"
        }
      ],
      "name": "HighestBidIncreased",
      "type": "event"
    },
    {
      "inputs": [],
      "name": "auctionEndBlock",
      "outputs": [
        {
          "internalType": "uint256",
          "name": "",
          "type": "uint256"
        }
      ],
      "stateMutability": "view",
      "type": "function"
    },
    {
      "inputs": [],
      "name": "auctionEndTime",
      "outputs": [
        {
          "internalType": "uint256",
          "name": "",
          "type": "uint256"
        }
      ],
      "stateMutability": "view",
      "type": "function"
    },
    {
      "inputs": [],
      "name": "beneficiary",
      "outputs": [
        {
          "internalType": "address payable",
          "name": "",
          "type": "address"
        }
      ],
      "stateMutability": "view",
      "type": "function"
    },
    {
      "inputs": [],
      "name": "ended",
      "outputs": [
        {
          "internalType": "bool",
          "name": "",
          "type": "bool"
        }
      ],
      "stateMutability": "view",
      "type": "function"
    },
    {
      "inputs": [],
      "name": "highestBid",
      "outputs": [
        {
          "internalType": "uint256",
          "name": "",
          "type": "uint256"
        }
      ],
      "stateMutability": "view",
      "type": "function"
    },
    {
      "inputs": [],
      "name": "highestBidder",
      "outputs": [
        {
          "internalType": "address",
          "name": "",
          "type": "address"
        }
      ],
      "stateMutability": "view",
      "type": "function"
    },
    {
      "inputs": [],
      "name": "bid",
      "outputs": [],
      "stateMutability": "payable",
      "type": "function"
    },
    {
      "inputs": [],
      "name": "withdraw",
      "outputs": [
        {
          "internalType": "bool",
          "name": "",
          "type": "bool"
        }
      ],
      "stateMutability": "nonpayable",
      "type": "function"
    },
    {
      "inputs": [],
      "name": "auctionEnd",
      "outputs": [],
      "stateMutability": "nonpayable",
      "type": "function"
    }
  ],
  "bytecode": "0x608060405234801562000010575f80fd5b5060405162000c4838038062000c48833981810160405281019062000036919062000152565b80600460016101000a81548173ffffffffffffffffffffffffffffffffffffffff021916908373ffffffffffffffffffffffffffffffffffffffff1602179055508142620000859190620001c4565b600281905550600f826200009a91906200022b565b43620000a79190620001c4565b600381905550505062000262565b5f80fd5b5f819050919050565b620000cd81620000b9565b8114620000d8575f80fd5b50565b5f81519050620000eb81620000c2565b92915050565b5f73ffffffffffffffffffffffffffffffffffffffff82169050919050565b5f6200011c82620000f1565b9050919050565b6200012e8162000110565b811462000139575f80fd5b50565b5f815190506200014c8162000123565b92915050565b5f80604083850312156200016b576200016a620000b5565b5b5f6200017a85828601620000db565b92505060206200018d858286016200013c565b9150509250929050565b7f4e487b71000000000000000000000000000000000000000000000000000000005f52601160045260245ffd5b5f620001d082620000b9565b9150620001dd83620000b9565b9250828201905080821115620001f857620001f762000197565b5b92915050565b7f4e487b71000000000000000000000000000000000000000000000000000000005f52601260045260245ffd5b5f6200023782620000b9565b91506200024483620000b9565b925082620002575762000256620001fe565b5b828204905092915050565b6109d880620002705f395ff3fe608060405260043610610085575f3560e01c806338af3eed1161005857806338af3eed146100fd5780633ccfd60b146101275780634b449cba1461015157806391f901571461017b578063d57bde79146101a557610085565b806307d52fa81461008957806312fa6feb146100b35780631998aeef146100dd5780632a24f46c146100e7575b5f80fd5b348015610094575f80fd5b5061009d6101cf565b6040516100aa9190610668565b60405180910390f35b3480156100be575f80fd5b506100c76101d5565b6040516100d4919061069b565b60405180910390f35b6100e56101e7565b005b3480156100f2575f80fd5b506100fb610370565b005b348015610108575f80fd5b506101116104e2565b60405161011e91906106f3565b60405180910390f35b348015610132575f80fd5b5061013b610508565b604051610148919061069b565b60405180910390f35b34801561015c575f80fd5b50610165610621565b6040516101729190610668565b60405180910390f35b348015610186575f80fd5b5061018f610627565b60405161019c919061072c565b60405180910390f35b3480156101b0575f80fd5b506101b961064a565b6040516101c69190610668565b60405180910390f35b60035481565b60045f9054906101000a900460ff1681565b60025442111561022c576040517f08c379a00000000000000000000000000000000000000000000000000000000081526004016102239061079f565b60405180910390fd5b6001543411610270576040517f08c379a000000000000000000000000000000000000000000000000000000000815260040161026790610807565b60405180910390fd5b5f600154146102ef5760015460055f805f9054906101000a900473ffffffffffffffffffffffffffffffffffffffff1673ffffffffffffffffffffffffffffffffffffffff1673ffffffffffffffffffffffffffffffffffffffff1681526020019081526020015f205f8282546102e79190610852565b925050819055505b335f806101000a81548173ffffffffffffffffffffffffffffffffffffffff021916908373ffffffffffffffffffffffffffffffffffffffff160217905550346001819055507ff4757a49b326036464bec6fe419a4ae38c8a02ce3e68bf0809674f6aab8ad3003334604051610366929190610885565b60405180910390a1565b6003544310156103b5576040517f08c379a00000000000000000000000000000000000000000000000000000000081526004016103ac906108f6565b60405180910390fd5b60045f9054906101000a900460ff1615610404576040517f08c379a00000000000000000000000000000000000000000000000000000000081526004016103fb90610984565b60405180910390fd5b600160045f6101000a81548160ff0219169083151502179055507fdaec4582d5d9595688c8c98545fdd1c696d41c6aeaeb636737e84ed2f5c00eda5f8054906101000a900473ffffffffffffffffffffffffffffffffffffffff16600154604051610470929190610885565b60405180910390a1600460019054906101000a900473ffffffffffffffffffffffffffffffffffffffff1673ffffffffffffffffffffffffffffffffffffffff166108fc60015490811502906040515f60405180830381858888f193505050501580156104df573d5f803e3d5ffd5b50565b600460019054906101000a900473ffffffffffffffffffffffffffffffffffffffff1681565b5f8060055f3373ffffffffffffffffffffffffffffffffffffffff1673ffffffffffffffffffffffffffffffffffffffff1681526020019081526020015f205490505f811115610618575f60055f3373ffffffffffffffffffffffffffffffffffffffff1673ffffffffffffffffffffffffffffffffffffffff1681526020019081526020015f20819055503373ffffffffffffffffffffffffffffffffffffffff166108fc8290811502906040515f60405180830381858888f19350505050610617578060055f3373ffffffffffffffffffffffffffffffffffffffff1673ffffffffffffffffffffffffffffffffffffffff1681526020019081526020015f20819055505f91505061061e565b5b60019150505b90565b60025481565b5f8054906101000a900473ffffffffffffffffffffffffffffffffffffffff1681565b60015481565b5f819050919050565b61066281610650565b82525050565b5f60208201905061067b5f830184610659565b92915050565b5f8115159050919050565b61069581610681565b82525050565b5f6020820190506106ae5f83018461068c565b92915050565b5f73ffffffffffffffffffffffffffffffffffffffff82169050919050565b5f6106dd826106b4565b9050919050565b6106ed816106d3565b82525050565b5f6020820190506107065f8301846106e4565b92915050565b5f610716826106b4565b9050919050565b6107268161070c565b82525050565b5f60208201905061073f5f83018461071d565b92915050565b5f82825260208201905092915050565b7f41756374696f6e20616c726561647920656e6465642e000000000000000000005f82015250565b5f610789601683610745565b915061079482610755565b602082019050919050565b5f6020820190508181035f8301526107b68161077d565b9050919050565b7f546865726520616c7265616479206973206120686967686572206269642e00005f82015250565b5f6107f1601e83610745565b91506107fc826107bd565b602082019050919050565b5f6020820190508181035f83015261081e816107e5565b9050919050565b7f4e487b71000000000000000000000000000000000000000000000000000000005f52601160045260245ffd5b5f61085c82610650565b915061086783610650565b925082820190508082111561087f5761087e610825565b5b92915050565b5f6040820190506108985f83018561071d565b6108a56020830184610659565b9392505050565b7f41756374696f6e206e6f742079657420656e6465642e000000000000000000005f82015250565b5f6108e0601683610745565b91506108eb826108ac565b602082019050919050565b5f6020820190508181035f83015261090d816108d4565b9050919050565b7f61756374696f6e456e642068617320616c7265616479206265656e2063616c6c5f8201527f65642e0000000000000000000000000000000000000000000000000000000000602082015250565b5f61096e602383610745565b915061097982610914565b604082019050919050565b5f6020820190508181035f83015261099b81610962565b905091905056fea264697066735822122062089a307e390dac30ac72bddff4052a708160f9223031a33dd7381cdf9fe4a064736f6c63430008150033",
  "immutableReferences": {},
  "source": "pragma solidity ^0.8.0;\r\n\r\ncontract CandleAuction {\r\n    address public highestBidder;\r\n    uint public highestBid;\r\n    uint public auctionEndTime;\r\n    uint public auctionEndBlock;\r\n    bool public ended;\r\n    address payable public beneficiary;\r\n\r\n    mapping(address => uint) pendingReturns;\r\n\r\n    event HighestBidIncreased(address bidder, uint amount);\r\n    event AuctionEnded(address winner, uint amount);\r\n\r\n    constructor(uint _biddingTime, address payable _beneficiary) {\r\n        beneficiary = _beneficiary;\r\n        auctionEndTime = block.timestamp + _biddingTime;\r\n        auctionEndBlock = block.number + _biddingTime / 15; // Approximation of 15 seconds per block\r\n    }\r\n\r\n    function bid() public payable {\r\n        require(block.timestamp <= auctionEndTime, \"Auction already ended.\");\r\n        require(msg.value > highestBid, \"There already is a higher bid.\");\r\n\r\n        if (highestBid != 0) {\r\n            pendingReturns[highestBidder] += highestBid;\r\n        }\r\n        highestBidder = msg.sender;\r\n        highestBid = msg.value;\r\n        emit HighestBidIncreased(msg.sender, msg.value);\r\n    }\r\n\r\n    function withdraw() public returns (bool) {\r\n        uint amount = pendingReturns[msg.sender];\r\n        if (amount > 0) {\r\n            pendingReturns[msg.sender] = 0;\r\n            if (!payable(msg.sender).send(amount)) {\r\n                pendingReturns[msg.sender] = amount;\r\n                return false;\r\n            }\r\n        }\r\n        return true;\r\n    }\r\n\r\n    function auctionEnd() public {\r\n        require(block.number >= auctionEndBlock, \"Auction not yet ended.\");\r\n        require(!ended, \"auctionEnd has already been called.\");\r\n\r\n        ended = true;\r\n        emit AuctionEnded(highestBidder, highestBid);\r\n\r\n        beneficiary.transfer(highestBid);\r\n    }\r\n}\r\n",
  "sourcePath": "E:\\candlecontarct\\contracts\\CandelAuction.sol",
  "compiler": {
    "name": "solc",
    "version": "0.8.21+commit.d9974bed.Emscripten.clang"
  },
  "schemaVersion": "3.4.16",
  "updatedAt": "2024-07-26T04:21:41.665Z",
  "devdoc": {
    "kind": "dev",
    "methods": {},
    "version": 1
  },
  "userdoc": {
    "kind": "user",
    "methods": {},
    "version": 1
  }
}